{
	"data": {
		"bytecode": {
			"linkReferences": {},
			"object": "6080604052348015600e575f5ffd5b506104028061001c5f395ff3fe608060405234801561000f575f5ffd5b5060043610610029575f3560e01c8063b12601da1461002d575b5f5ffd5b61004760048036038101906100429190610221565b61005d565b6040516100549190610296565b60405180910390f35b5f5f8484905003610090577fffffffffffffffffffffffffffffffffffffffffffffffffffffffffffffffff905061017e565b5f5f90505f6001868690506100a591906102dc565b90505b808211610158575f600283836100be91906102dc565b6100c8919061033c565b836100d3919061036c565b9050848787838181106100e9576100e861039f565b5b90506020020135036101005780935050505061017e565b848787838181106101145761011361039f565b5b9050602002013510156101355760018161012e919061036c565b9250610152565b5f81036101425750610158565b60018161014f91906102dc565b91505b506100a8565b7fffffffffffffffffffffffffffffffffffffffffffffffffffffffffffffffff925050505b9392505050565b5f5ffd5b5f5ffd5b5f5ffd5b5f5ffd5b5f5ffd5b5f5f83601f8401126101ae576101ad61018d565b5b8235905067ffffffffffffffff8111156101cb576101ca610191565b5b6020830191508360208202830111156101e7576101e6610195565b5b9250929050565b5f819050919050565b610200816101ee565b811461020a575f5ffd5b50565b5f8135905061021b816101f7565b92915050565b5f5f5f6040848603121561023857610237610185565b5b5f84013567ffffffffffffffff81111561025557610254610189565b5b61026186828701610199565b935093505060206102748682870161020d565b9150509250925092565b5f819050919050565b6102908161027e565b82525050565b5f6020820190506102a95f830184610287565b92915050565b7f4e487b71000000000000000000000000000000000000000000000000000000005f52601160045260245ffd5b5f6102e6826101ee565b91506102f1836101ee565b9250828203905081811115610309576103086102af565b5b92915050565b7f4e487b71000000000000000000000000000000000000000000000000000000005f52601260045260245ffd5b5f610346826101ee565b9150610351836101ee565b9250826103615761036061030f565b5b828204905092915050565b5f610376826101ee565b9150610381836101ee565b9250828201905080821115610399576103986102af565b5b92915050565b7f4e487b71000000000000000000000000000000000000000000000000000000005f52603260045260245ffdfea2646970667358221220906379c38571b0bc5f6d9491ff1aac52bf36bce451a19a9575f24434ccd2bb5f64736f6c634300081f0033",
			"opcodes": "PUSH1 0x80 PUSH1 0x40 MSTORE CALLVALUE DUP1 ISZERO PUSH1 0xE JUMPI PUSH0 PUSH0 REVERT JUMPDEST POP PUSH2 0x402 DUP1 PUSH2 0x1C PUSH0 CODECOPY PUSH0 RETURN INVALID PUSH1 0x80 PUSH1 0x40 MSTORE CALLVALUE DUP1 ISZERO PUSH2 0xF JUMPI PUSH0 PUSH0 REVERT JUMPDEST POP PUSH1 0x4 CALLDATASIZE LT PUSH2 0x29 JUMPI PUSH0 CALLDATALOAD PUSH1 0xE0 SHR DUP1 PUSH4 0xB12601DA EQ PUSH2 0x2D JUMPI JUMPDEST PUSH0 PUSH0 REVERT JUMPDEST PUSH2 0x47 PUSH1 0x4 DUP1 CALLDATASIZE SUB DUP2 ADD SWAP1 PUSH2 0x42 SWAP2 SWAP1 PUSH2 0x221 JUMP JUMPDEST PUSH2 0x5D JUMP JUMPDEST PUSH1 0x40 MLOAD PUSH2 0x54 SWAP2 SWAP1 PUSH2 0x296 JUMP JUMPDEST PUSH1 0x40 MLOAD DUP1 SWAP2 SUB SWAP1 RETURN JUMPDEST PUSH0 PUSH0 DUP5 DUP5 SWAP1 POP SUB PUSH2 0x90 JUMPI PUSH32 0xFFFFFFFFFFFFFFFFFFFFFFFFFFFFFFFFFFFFFFFFFFFFFFFFFFFFFFFFFFFFFFFF SWAP1 POP PUSH2 0x17E JUMP JUMPDEST PUSH0 PUSH0 SWAP1 POP PUSH0 PUSH1 0x1 DUP7 DUP7 SWAP1 POP PUSH2 0xA5 SWAP2 SWAP1 PUSH2 0x2DC JUMP JUMPDEST SWAP1 POP JUMPDEST DUP1 DUP3 GT PUSH2 0x158 JUMPI PUSH0 PUSH1 0x2 DUP4 DUP4 PUSH2 0xBE SWAP2 SWAP1 PUSH2 0x2DC JUMP JUMPDEST PUSH2 0xC8 SWAP2 SWAP1 PUSH2 0x33C JUMP JUMPDEST DUP4 PUSH2 0xD3 SWAP2 SWAP1 PUSH2 0x36C JUMP JUMPDEST SWAP1 POP DUP5 DUP8 DUP8 DUP4 DUP2 DUP2 LT PUSH2 0xE9 JUMPI PUSH2 0xE8 PUSH2 0x39F JUMP JUMPDEST JUMPDEST SWAP1 POP PUSH1 0x20 MUL ADD CALLDATALOAD SUB PUSH2 0x100 JUMPI DUP1 SWAP4 POP POP POP POP PUSH2 0x17E JUMP JUMPDEST DUP5 DUP8 DUP8 DUP4 DUP2 DUP2 LT PUSH2 0x114 JUMPI PUSH2 0x113 PUSH2 0x39F JUMP JUMPDEST JUMPDEST SWAP1 POP PUSH1 0x20 MUL ADD CALLDATALOAD LT ISZERO PUSH2 0x135 JUMPI PUSH1 0x1 DUP2 PUSH2 0x12E SWAP2 SWAP1 PUSH2 0x36C JUMP JUMPDEST SWAP3 POP PUSH2 0x152 JUMP JUMPDEST PUSH0 DUP2 SUB PUSH2 0x142 JUMPI POP PUSH2 0x158 JUMP JUMPDEST PUSH1 0x1 DUP2 PUSH2 0x14F SWAP2 SWAP1 PUSH2 0x2DC JUMP JUMPDEST SWAP2 POP JUMPDEST POP PUSH2 0xA8 JUMP JUMPDEST PUSH32 0xFFFFFFFFFFFFFFFFFFFFFFFFFFFFFFFFFFFFFFFFFFFFFFFFFFFFFFFFFFFFFFFF SWAP3 POP POP POP JUMPDEST SWAP4 SWAP3 POP POP POP JUMP JUMPDEST PUSH0 PUSH0 REVERT JUMPDEST PUSH0 PUSH0 REVERT JUMPDEST PUSH0 PUSH0 REVERT JUMPDEST PUSH0 PUSH0 REVERT JUMPDEST PUSH0 PUSH0 REVERT JUMPDEST PUSH0 PUSH0 DUP4 PUSH1 0x1F DUP5 ADD SLT PUSH2 0x1AE JUMPI PUSH2 0x1AD PUSH2 0x18D JUMP JUMPDEST JUMPDEST DUP3 CALLDATALOAD SWAP1 POP PUSH8 0xFFFFFFFFFFFFFFFF DUP2 GT ISZERO PUSH2 0x1CB JUMPI PUSH2 0x1CA PUSH2 0x191 JUMP JUMPDEST JUMPDEST PUSH1 0x20 DUP4 ADD SWAP2 POP DUP4 PUSH1 0x20 DUP3 MUL DUP4 ADD GT ISZERO PUSH2 0x1E7 JUMPI PUSH2 0x1E6 PUSH2 0x195 JUMP JUMPDEST JUMPDEST SWAP3 POP SWAP3 SWAP1 POP JUMP JUMPDEST PUSH0 DUP2 SWAP1 POP SWAP2 SWAP1 POP JUMP JUMPDEST PUSH2 0x200 DUP2 PUSH2 0x1EE JUMP JUMPDEST DUP2 EQ PUSH2 0x20A JUMPI PUSH0 PUSH0 REVERT JUMPDEST POP JUMP JUMPDEST PUSH0 DUP2 CALLDATALOAD SWAP1 POP PUSH2 0x21B DUP2 PUSH2 0x1F7 JUMP JUMPDEST SWAP3 SWAP2 POP POP JUMP JUMPDEST PUSH0 PUSH0 PUSH0 PUSH1 0x40 DUP5 DUP7 SUB SLT ISZERO PUSH2 0x238 JUMPI PUSH2 0x237 PUSH2 0x185 JUMP JUMPDEST JUMPDEST PUSH0 DUP5 ADD CALLDATALOAD PUSH8 0xFFFFFFFFFFFFFFFF DUP2 GT ISZERO PUSH2 0x255 JUMPI PUSH2 0x254 PUSH2 0x189 JUMP JUMPDEST JUMPDEST PUSH2 0x261 DUP7 DUP3 DUP8 ADD PUSH2 0x199 JUMP JUMPDEST SWAP4 POP SWAP4 POP POP PUSH1 0x20 PUSH2 0x274 DUP7 DUP3 DUP8 ADD PUSH2 0x20D JUMP JUMPDEST SWAP2 POP POP SWAP3 POP SWAP3 POP SWAP3 JUMP JUMPDEST PUSH0 DUP2 SWAP1 POP SWAP2 SWAP1 POP JUMP JUMPDEST PUSH2 0x290 DUP2 PUSH2 0x27E JUMP JUMPDEST DUP3 MSTORE POP POP JUMP JUMPDEST PUSH0 PUSH1 0x20 DUP3 ADD SWAP1 POP PUSH2 0x2A9 PUSH0 DUP4 ADD DUP5 PUSH2 0x287 JUMP JUMPDEST SWAP3 SWAP2 POP POP JUMP JUMPDEST PUSH32 0x4E487B7100000000000000000000000000000000000000000000000000000000 PUSH0 MSTORE PUSH1 0x11 PUSH1 0x4 MSTORE PUSH1 0x24 PUSH0 REVERT JUMPDEST PUSH0 PUSH2 0x2E6 DUP3 PUSH2 0x1EE JUMP JUMPDEST SWAP2 POP PUSH2 0x2F1 DUP4 PUSH2 0x1EE JUMP JUMPDEST SWAP3 POP DUP3 DUP3 SUB SWAP1 POP DUP2 DUP2 GT ISZERO PUSH2 0x309 JUMPI PUSH2 0x308 PUSH2 0x2AF JUMP JUMPDEST JUMPDEST SWAP3 SWAP2 POP POP JUMP JUMPDEST PUSH32 0x4E487B7100000000000000000000000000000000000000000000000000000000 PUSH0 MSTORE PUSH1 0x12 PUSH1 0x4 MSTORE PUSH1 0x24 PUSH0 REVERT JUMPDEST PUSH0 PUSH2 0x346 DUP3 PUSH2 0x1EE JUMP JUMPDEST SWAP2 POP PUSH2 0x351 DUP4 PUSH2 0x1EE JUMP JUMPDEST SWAP3 POP DUP3 PUSH2 0x361 JUMPI PUSH2 0x360 PUSH2 0x30F JUMP JUMPDEST JUMPDEST DUP3 DUP3 DIV SWAP1 POP SWAP3 SWAP2 POP POP JUMP JUMPDEST PUSH0 PUSH2 0x376 DUP3 PUSH2 0x1EE JUMP JUMPDEST SWAP2 POP PUSH2 0x381 DUP4 PUSH2 0x1EE JUMP JUMPDEST SWAP3 POP DUP3 DUP3 ADD SWAP1 POP DUP1 DUP3 GT ISZERO PUSH2 0x399 JUMPI PUSH2 0x398 PUSH2 0x2AF JUMP JUMPDEST JUMPDEST SWAP3 SWAP2 POP POP JUMP JUMPDEST PUSH32 0x4E487B7100000000000000000000000000000000000000000000000000000000 PUSH0 MSTORE PUSH1 0x32 PUSH1 0x4 MSTORE PUSH1 0x24 PUSH0 REVERT INVALID LOG2 PUSH5 0x6970667358 0x22 SLT KECCAK256 SWAP1 PUSH4 0x79C38571 0xB0 0xBC PUSH0 PUSH14 0x9491FF1AAC52BF36BCE451A19A95 PUSH22 0xF24434CCD2BB5F64736F6C634300081F003300000000 "
		},
		"gasEstimates": {
			"creation": {
				"codeDepositCost": "205200",
				"executionCost": "249",
				"totalCost": "205449"
			},
			"external": {
				"binarySearch(uint256[],uint256)": "infinite"
			}
		},
		"methodIdentifiers": {
			"binarySearch(uint256[],uint256)": "b12601da"
		}
	},
	"abi": [
		{
			"inputs": [
				{
					"internalType": "uint256[]",
					"name": "arr",
					"type": "uint256[]"
				},
				{
					"internalType": "uint256",
					"name": "target",
					"type": "uint256"
				}
			],
			"name": "binarySearch",
			"outputs": [
				{
					"internalType": "int256",
					"name": "",
					"type": "int256"
				}
			],
			"stateMutability": "pure",
			"type": "function"
		}
	]
}